{
  "_format": "hh-sol-artifact-1",
  "contractName": "MyToken",
  "sourceName": "contracts/MyToken.sol",
  "abi": [
    {
      "inputs": [
        {
          "internalType": "string",
          "name": "_name",
          "type": "string"
        },
        {
          "internalType": "string",
          "name": "_symbol",
          "type": "string"
        },
        {
          "internalType": "uint8",
          "name": "_decimal",
          "type": "uint8"
        },
        {
          "internalType": "uint256",
          "name": "_amount",
          "type": "uint256"
        }
      ],
      "stateMutability": "nonpayable",
      "type": "constructor"
    },
    {
      "anonymous": false,
      "inputs": [
        {
          "indexed": true,
          "internalType": "address",
          "name": "spender",
          "type": "address"
        },
        {
          "indexed": false,
          "internalType": "uint256",
          "name": "amount",
          "type": "uint256"
        }
      ],
      "name": "Approval",
      "type": "event"
    },
    {
      "anonymous": false,
      "inputs": [
        {
          "indexed": true,
          "internalType": "address",
          "name": "from",
          "type": "address"
        },
        {
          "indexed": true,
          "internalType": "address",
          "name": "to",
          "type": "address"
        },
        {
          "indexed": false,
          "internalType": "uint256",
          "name": "amount",
          "type": "uint256"
        }
      ],
      "name": "Transfer",
      "type": "event"
    },
    {
      "inputs": [
        {
          "internalType": "address",
          "name": "",
          "type": "address"
        },
        {
          "internalType": "address",
          "name": "",
          "type": "address"
        }
      ],
      "name": "allowance",
      "outputs": [
        {
          "internalType": "uint256",
          "name": "",
          "type": "uint256"
        }
      ],
      "stateMutability": "view",
      "type": "function"
    },
    {
      "inputs": [
        {
          "internalType": "address",
          "name": "spender",
          "type": "address"
        },
        {
          "internalType": "uint256",
          "name": "amount",
          "type": "uint256"
        }
      ],
      "name": "approve",
      "outputs": [],
      "stateMutability": "nonpayable",
      "type": "function"
    },
    {
      "inputs": [
        {
          "internalType": "address",
          "name": "",
          "type": "address"
        }
      ],
      "name": "balanceOf",
      "outputs": [
        {
          "internalType": "uint256",
          "name": "",
          "type": "uint256"
        }
      ],
      "stateMutability": "view",
      "type": "function"
    },
    {
      "inputs": [],
      "name": "decimal",
      "outputs": [
        {
          "internalType": "uint8",
          "name": "",
          "type": "uint8"
        }
      ],
      "stateMutability": "view",
      "type": "function"
    },
    {
      "inputs": [],
      "name": "manager",
      "outputs": [
        {
          "internalType": "address",
          "name": "",
          "type": "address"
        }
      ],
      "stateMutability": "view",
      "type": "function"
    },
    {
      "inputs": [
        {
          "internalType": "uint256",
          "name": "amount",
          "type": "uint256"
        },
        {
          "internalType": "address",
          "name": "to",
          "type": "address"
        }
      ],
      "name": "mint",
      "outputs": [],
      "stateMutability": "nonpayable",
      "type": "function"
    },
    {
      "inputs": [],
      "name": "name",
      "outputs": [
        {
          "internalType": "string",
          "name": "",
          "type": "string"
        }
      ],
      "stateMutability": "view",
      "type": "function"
    },
    {
      "inputs": [],
      "name": "owner",
      "outputs": [
        {
          "internalType": "address",
          "name": "",
          "type": "address"
        }
      ],
      "stateMutability": "view",
      "type": "function"
    },
    {
      "inputs": [
        {
          "internalType": "address",
          "name": "_manager",
          "type": "address"
        }
      ],
      "name": "setManager",
      "outputs": [],
      "stateMutability": "nonpayable",
      "type": "function"
    },
    {
      "inputs": [],
      "name": "symbol",
      "outputs": [
        {
          "internalType": "string",
          "name": "",
          "type": "string"
        }
      ],
      "stateMutability": "view",
      "type": "function"
    },
    {
      "inputs": [],
      "name": "totalSupply",
      "outputs": [
        {
          "internalType": "uint256",
          "name": "",
          "type": "uint256"
        }
      ],
      "stateMutability": "view",
      "type": "function"
    },
    {
      "inputs": [
        {
          "internalType": "uint256",
          "name": "amount",
          "type": "uint256"
        },
        {
          "internalType": "address",
          "name": "to",
          "type": "address"
        }
      ],
      "name": "transfer",
      "outputs": [],
      "stateMutability": "nonpayable",
      "type": "function"
    },
    {
      "inputs": [
        {
          "internalType": "address",
          "name": "from",
          "type": "address"
        },
        {
          "internalType": "address",
          "name": "to",
          "type": "address"
        },
        {
          "internalType": "uint256",
          "name": "amount",
          "type": "uint256"
        }
      ],
      "name": "transferFrom",
      "outputs": [],
      "stateMutability": "nonpayable",
      "type": "function"
    }
  ],
  "bytecode": "0x608060405234801561001057600080fd5b50604051611b99380380611b9983398181016040528101906100329190610451565b3333816000806101000a81548173ffffffffffffffffffffffffffffffffffffffff021916908373ffffffffffffffffffffffffffffffffffffffff16021790555080600160006101000a81548173ffffffffffffffffffffffffffffffffffffffff021916908373ffffffffffffffffffffffffffffffffffffffff1602179055505050336000806101000a81548173ffffffffffffffffffffffffffffffffffffffff021916908373ffffffffffffffffffffffffffffffffffffffff16021790555083600290816101069190610707565b5082600390816101169190610707565b5081600460006101000a81548160ff021916908360ff16021790555061016b600460009054906101000a900460ff1660ff16600a610154919061093b565b8261015f9190610986565b3361017460201b60201c565b50505050610a26565b816005600082825461018691906109c8565b9250508190555081600660008373ffffffffffffffffffffffffffffffffffffffff1673ffffffffffffffffffffffffffffffffffffffff16815260200190815260200160002060008282546101dc91906109c8565b9250508190555060008054906101000a900473ffffffffffffffffffffffffffffffffffffffff1673ffffffffffffffffffffffffffffffffffffffff16600073ffffffffffffffffffffffffffffffffffffffff167fddf252ad1be2c89b69c2b068fc378daa952ba7f163c4a11628f55a4df523b3ef846040516102619190610a0b565b60405180910390a35050565b6000604051905090565b600080fd5b600080fd5b600080fd5b600080fd5b6000601f19601f8301169050919050565b7f4e487b7100000000000000000000000000000000000000000000000000000000600052604160045260246000fd5b6102d48261028b565b810181811067ffffffffffffffff821117156102f3576102f261029c565b5b80604052505050565b600061030661026d565b905061031282826102cb565b919050565b600067ffffffffffffffff8211156103325761033161029c565b5b61033b8261028b565b9050602081019050919050565b60005b8381101561036657808201518184015260208101905061034b565b60008484015250505050565b600061038561038084610317565b6102fc565b9050828152602081018484840111156103a1576103a0610286565b5b6103ac848285610348565b509392505050565b600082601f8301126103c9576103c8610281565b5b81516103d9848260208601610372565b91505092915050565b600060ff82169050919050565b6103f8816103e2565b811461040357600080fd5b50565b600081519050610415816103ef565b92915050565b6000819050919050565b61042e8161041b565b811461043957600080fd5b50565b60008151905061044b81610425565b92915050565b6000806000806080858703121561046b5761046a610277565b5b600085015167ffffffffffffffff8111156104895761048861027c565b5b610495878288016103b4565b945050602085015167ffffffffffffffff8111156104b6576104b561027c565b5b6104c2878288016103b4565b93505060406104d387828801610406565b92505060606104e48782880161043c565b91505092959194509250565b600081519050919050565b7f4e487b7100000000000000000000000000000000000000000000000000000000600052602260045260246000fd5b6000600282049050600182168061054257607f821691505b602082108103610555576105546104fb565b5b50919050565b60008190508160005260206000209050919050565b60006020601f8301049050919050565b600082821b905092915050565b6000600883026105bd7fffffffffffffffffffffffffffffffffffffffffffffffffffffffffffffffff82610580565b6105c78683610580565b95508019841693508086168417925050509392505050565b6000819050919050565b60006106046105ff6105fa8461041b565b6105df565b61041b565b9050919050565b6000819050919050565b61061e836105e9565b61063261062a8261060b565b84845461058d565b825550505050565b600090565b61064761063a565b610652818484610615565b505050565b5b818110156106765761066b60008261063f565b600181019050610658565b5050565b601f8211156106bb5761068c8161055b565b61069584610570565b810160208510156106a4578190505b6106b86106b085610570565b830182610657565b50505b505050565b600082821c905092915050565b60006106de600019846008026106c0565b1980831691505092915050565b60006106f783836106cd565b9150826002028217905092915050565b610710826104f0565b67ffffffffffffffff8111156107295761072861029c565b5b610733825461052a565b61073e82828561067a565b600060209050601f831160018114610771576000841561075f578287015190505b61076985826106eb565b8655506107d1565b601f19841661077f8661055b565b60005b828110156107a757848901518255600182019150602085019450602081019050610782565b868310156107c457848901516107c0601f8916826106cd565b8355505b6001600288020188555050505b505050505050565b7f4e487b7100000000000000000000000000000000000000000000000000000000600052601160045260246000fd5b60008160011c9050919050565b6000808291508390505b600185111561085f5780860481111561083b5761083a6107d9565b5b600185161561084a5780820291505b808102905061085885610808565b945061081f565b94509492505050565b6000826108785760019050610934565b816108865760009050610934565b816001811461089c57600281146108a6576108d5565b6001915050610934565b60ff8411156108b8576108b76107d9565b5b8360020a9150848211156108cf576108ce6107d9565b5b50610934565b5060208310610133831016604e8410600b841016171561090a5782820a905083811115610905576109046107d9565b5b610934565b6109178484846001610815565b9250905081840481111561092e5761092d6107d9565b5b81810290505b9392505050565b60006109468261041b565b91506109518361041b565b925061097e7fffffffffffffffffffffffffffffffffffffffffffffffffffffffffffffffff8484610868565b905092915050565b60006109918261041b565b915061099c8361041b565b92508282026109aa8161041b565b915082820484148315176109c1576109c06107d9565b5b5092915050565b60006109d38261041b565b91506109de8361041b565b92508282019050808211156109f6576109f56107d9565b5b92915050565b610a058161041b565b82525050565b6000602082019050610a2060008301846109fc565b92915050565b61116480610a356000396000f3fe608060405234801561001057600080fd5b50600436106100cf5760003560e01c806376809ce31161008c57806395d89b411161006657806395d89b41146101ee578063b7760c8f1461020c578063d0ebdbe714610228578063dd62ed3e14610244576100cf565b806376809ce3146101965780638da5cb5b146101b457806394bf804d146101d2576100cf565b806306fdde03146100d4578063095ea7b3146100f257806318160ddd1461010e57806323b872dd1461012c578063481c6a751461014857806370a0823114610166575b600080fd5b6100dc610274565b6040516100e99190610c01565b60405180910390f35b61010c60048036038101906101079190610cbc565b610302565b005b6101166103d5565b6040516101239190610d0b565b60405180910390f35b61014660048036038101906101419190610d26565b6103db565b005b610150610649565b60405161015d9190610d88565b60405180910390f35b610180600480360381019061017b9190610da3565b61066f565b60405161018d9190610d0b565b60405180910390f35b61019e610687565b6040516101ab9190610dec565b60405180910390f35b6101bc61069a565b6040516101c99190610d88565b60405180910390f35b6101ec60048036038101906101e79190610e07565b6106be565b005b6101f661075c565b6040516102039190610c01565b60405180910390f35b61022660048036038101906102219190610e07565b6107ea565b005b610242600480360381019061023d9190610da3565b610981565b005b61025e60048036038101906102599190610e47565b610a53565b60405161026b9190610d0b565b60405180910390f35b6002805461028190610eb6565b80601f01602080910402602001604051908101604052809291908181526020018280546102ad90610eb6565b80156102fa5780601f106102cf576101008083540402835291602001916102fa565b820191906000526020600020905b8154815290600101906020018083116102dd57829003601f168201915b505050505081565b80600760003373ffffffffffffffffffffffffffffffffffffffff1673ffffffffffffffffffffffffffffffffffffffff16815260200190815260200160002060008473ffffffffffffffffffffffffffffffffffffffff1673ffffffffffffffffffffffffffffffffffffffff168152602001908152602001600020819055508173ffffffffffffffffffffffffffffffffffffffff167f1e4109814b4fb1210f81ef6540a9bf7e5834ff79536859d16d6398f0e417c44f826040516103c99190610d0b565b60405180910390a25050565b60055481565b600033905081600760008673ffffffffffffffffffffffffffffffffffffffff1673ffffffffffffffffffffffffffffffffffffffff16815260200190815260200160002060008373ffffffffffffffffffffffffffffffffffffffff1673ffffffffffffffffffffffffffffffffffffffff16815260200190815260200160002054101561049f576040517f08c379a000000000000000000000000000000000000000000000000000000000815260040161049690610f33565b60405180910390fd5b81600760008673ffffffffffffffffffffffffffffffffffffffff1673ffffffffffffffffffffffffffffffffffffffff16815260200190815260200160002060008373ffffffffffffffffffffffffffffffffffffffff1673ffffffffffffffffffffffffffffffffffffffff168152602001908152602001600020600082825461052b9190610f82565b9250508190555081600660008673ffffffffffffffffffffffffffffffffffffffff1673ffffffffffffffffffffffffffffffffffffffff16815260200190815260200160002060008282546105819190610f82565b9250508190555081600660008573ffffffffffffffffffffffffffffffffffffffff1673ffffffffffffffffffffffffffffffffffffffff16815260200190815260200160002060008282546105d79190610fb6565b925050819055508273ffffffffffffffffffffffffffffffffffffffff168473ffffffffffffffffffffffffffffffffffffffff167fddf252ad1be2c89b69c2b068fc378daa952ba7f163c4a11628f55a4df523b3ef8460405161063b9190610d0b565b60405180910390a350505050565b600160009054906101000a900473ffffffffffffffffffffffffffffffffffffffff1681565b60066020528060005260406000206000915090505481565b600460009054906101000a900460ff1681565b60008054906101000a900473ffffffffffffffffffffffffffffffffffffffff1681565b600160009054906101000a900473ffffffffffffffffffffffffffffffffffffffff1673ffffffffffffffffffffffffffffffffffffffff163373ffffffffffffffffffffffffffffffffffffffff161461074e576040517f08c379a000000000000000000000000000000000000000000000000000000000815260040161074590611036565b60405180910390fd5b6107588282610a78565b5050565b6003805461076990610eb6565b80601f016020809104026020016040519081016040528092919081815260200182805461079590610eb6565b80156107e25780601f106107b7576101008083540402835291602001916107e2565b820191906000526020600020905b8154815290600101906020018083116107c557829003601f168201915b505050505081565b81600660003373ffffffffffffffffffffffffffffffffffffffff1673ffffffffffffffffffffffffffffffffffffffff16815260200190815260200160002054101561086c576040517f08c379a0000000000000000000000000000000000000000000000000000000008152600401610863906110a2565b60405180910390fd5b81600660003373ffffffffffffffffffffffffffffffffffffffff1673ffffffffffffffffffffffffffffffffffffffff16815260200190815260200160002060008282546108bb9190610f82565b9250508190555081600660008373ffffffffffffffffffffffffffffffffffffffff1673ffffffffffffffffffffffffffffffffffffffff16815260200190815260200160002060008282546109119190610fb6565b925050819055508073ffffffffffffffffffffffffffffffffffffffff163373ffffffffffffffffffffffffffffffffffffffff167fddf252ad1be2c89b69c2b068fc378daa952ba7f163c4a11628f55a4df523b3ef846040516109759190610d0b565b60405180910390a35050565b60008054906101000a900473ffffffffffffffffffffffffffffffffffffffff1673ffffffffffffffffffffffffffffffffffffffff163373ffffffffffffffffffffffffffffffffffffffff1614610a0f576040517f08c379a0000000000000000000000000000000000000000000000000000000008152600401610a069061110e565b60405180910390fd5b80600160006101000a81548173ffffffffffffffffffffffffffffffffffffffff021916908373ffffffffffffffffffffffffffffffffffffffff16021790555050565b6007602052816000526040600020602052806000526040600020600091509150505481565b8160056000828254610a8a9190610fb6565b9250508190555081600660008373ffffffffffffffffffffffffffffffffffffffff1673ffffffffffffffffffffffffffffffffffffffff1681526020019081526020016000206000828254610ae09190610fb6565b9250508190555060008054906101000a900473ffffffffffffffffffffffffffffffffffffffff1673ffffffffffffffffffffffffffffffffffffffff16600073ffffffffffffffffffffffffffffffffffffffff167fddf252ad1be2c89b69c2b068fc378daa952ba7f163c4a11628f55a4df523b3ef84604051610b659190610d0b565b60405180910390a35050565b600081519050919050565b600082825260208201905092915050565b60005b83811015610bab578082015181840152602081019050610b90565b60008484015250505050565b6000601f19601f8301169050919050565b6000610bd382610b71565b610bdd8185610b7c565b9350610bed818560208601610b8d565b610bf681610bb7565b840191505092915050565b60006020820190508181036000830152610c1b8184610bc8565b905092915050565b600080fd5b600073ffffffffffffffffffffffffffffffffffffffff82169050919050565b6000610c5382610c28565b9050919050565b610c6381610c48565b8114610c6e57600080fd5b50565b600081359050610c8081610c5a565b92915050565b6000819050919050565b610c9981610c86565b8114610ca457600080fd5b50565b600081359050610cb681610c90565b92915050565b60008060408385031215610cd357610cd2610c23565b5b6000610ce185828601610c71565b9250506020610cf285828601610ca7565b9150509250929050565b610d0581610c86565b82525050565b6000602082019050610d206000830184610cfc565b92915050565b600080600060608486031215610d3f57610d3e610c23565b5b6000610d4d86828701610c71565b9350506020610d5e86828701610c71565b9250506040610d6f86828701610ca7565b9150509250925092565b610d8281610c48565b82525050565b6000602082019050610d9d6000830184610d79565b92915050565b600060208284031215610db957610db8610c23565b5b6000610dc784828501610c71565b91505092915050565b600060ff82169050919050565b610de681610dd0565b82525050565b6000602082019050610e016000830184610ddd565b92915050565b60008060408385031215610e1e57610e1d610c23565b5b6000610e2c85828601610ca7565b9250506020610e3d85828601610c71565b9150509250929050565b60008060408385031215610e5e57610e5d610c23565b5b6000610e6c85828601610c71565b9250506020610e7d85828601610c71565b9150509250929050565b7f4e487b7100000000000000000000000000000000000000000000000000000000600052602260045260246000fd5b60006002820490506001821680610ece57607f821691505b602082108103610ee157610ee0610e87565b5b50919050565b7f696e73756666696369656e7420616c6c6f77616e636500000000000000000000600082015250565b6000610f1d601683610b7c565b9150610f2882610ee7565b602082019050919050565b60006020820190508181036000830152610f4c81610f10565b9050919050565b7f4e487b7100000000000000000000000000000000000000000000000000000000600052601160045260246000fd5b6000610f8d82610c86565b9150610f9883610c86565b9250828203905081811115610fb057610faf610f53565b5b92915050565b6000610fc182610c86565b9150610fcc83610c86565b9250828201905080821115610fe457610fe3610f53565b5b92915050565b7f596f7520617265206e6f74206d616e6167657200000000000000000000000000600082015250565b6000611020601383610b7c565b915061102b82610fea565b602082019050919050565b6000602082019050818103600083015261104f81611013565b9050919050565b7f696e73756666696369656e742062616c616e6365000000000000000000000000600082015250565b600061108c601483610b7c565b915061109782611056565b602082019050919050565b600060208201905081810360008301526110bb8161107f565b9050919050565b7f596f7520617265206e6f74206f776e6572000000000000000000000000000000600082015250565b60006110f8601183610b7c565b9150611103826110c2565b602082019050919050565b60006020820190508181036000830152611127816110eb565b905091905056fea2646970667358221220ee34602a88cbf1ac965a1577fe8327f58f4d97da503d98c3ed8f6637bf8cbcb864736f6c634300081c0033",
  "linkReferences": {},
  "deployedLinkReferences": {}
}