{
  "_format": "hh-sol-artifact-1",
  "contractName": "MyToken",
  "sourceName": "contracts/MyToken.sol",
  "abi": [
    {
      "inputs": [
        {
          "internalType": "string",
          "name": "_name",
          "type": "string"
        },
        {
          "internalType": "string",
          "name": "_symbol",
          "type": "string"
        },
        {
          "internalType": "uint8",
          "name": "_decimal",
          "type": "uint8"
        },
        {
          "internalType": "uint256",
          "name": "_amount",
          "type": "uint256"
        }
      ],
      "stateMutability": "nonpayable",
      "type": "constructor"
    },
    {
      "anonymous": false,
      "inputs": [
        {
          "indexed": true,
          "internalType": "address",
          "name": "spender",
          "type": "address"
        },
        {
          "indexed": false,
          "internalType": "uint256",
          "name": "amount",
          "type": "uint256"
        }
      ],
      "name": "Approval",
      "type": "event"
    },
    {
      "anonymous": false,
      "inputs": [
        {
          "indexed": true,
          "internalType": "address",
          "name": "from",
          "type": "address"
        },
        {
          "indexed": true,
          "internalType": "address",
          "name": "to",
          "type": "address"
        },
        {
          "indexed": false,
          "internalType": "uint256",
          "name": "amount",
          "type": "uint256"
        }
      ],
      "name": "Transfer",
      "type": "event"
    },
    {
      "inputs": [
        {
          "internalType": "address",
          "name": "",
          "type": "address"
        },
        {
          "internalType": "address",
          "name": "",
          "type": "address"
        }
      ],
      "name": "allowance",
      "outputs": [
        {
          "internalType": "uint256",
          "name": "",
          "type": "uint256"
        }
      ],
      "stateMutability": "view",
      "type": "function"
    },
    {
      "inputs": [
        {
          "internalType": "address",
          "name": "spender",
          "type": "address"
        },
        {
          "internalType": "uint256",
          "name": "amount",
          "type": "uint256"
        }
      ],
      "name": "approve",
      "outputs": [],
      "stateMutability": "nonpayable",
      "type": "function"
    },
    {
      "inputs": [
        {
          "internalType": "address",
          "name": "",
          "type": "address"
        }
      ],
      "name": "balanceOf",
      "outputs": [
        {
          "internalType": "uint256",
          "name": "",
          "type": "uint256"
        }
      ],
      "stateMutability": "view",
      "type": "function"
    },
    {
      "inputs": [],
      "name": "decimal",
      "outputs": [
        {
          "internalType": "uint8",
          "name": "",
          "type": "uint8"
        }
      ],
      "stateMutability": "view",
      "type": "function"
    },
    {
      "inputs": [
        {
          "internalType": "uint256",
          "name": "amount",
          "type": "uint256"
        }
      ],
      "name": "faucet",
      "outputs": [],
      "stateMutability": "nonpayable",
      "type": "function"
    },
    {
      "inputs": [],
      "name": "manager",
      "outputs": [
        {
          "internalType": "address",
          "name": "",
          "type": "address"
        }
      ],
      "stateMutability": "view",
      "type": "function"
    },
    {
      "inputs": [
        {
          "internalType": "uint256",
          "name": "amount",
          "type": "uint256"
        },
        {
          "internalType": "address",
          "name": "to",
          "type": "address"
        }
      ],
      "name": "mint",
      "outputs": [],
      "stateMutability": "nonpayable",
      "type": "function"
    },
    {
      "inputs": [],
      "name": "name",
      "outputs": [
        {
          "internalType": "string",
          "name": "",
          "type": "string"
        }
      ],
      "stateMutability": "view",
      "type": "function"
    },
    {
      "inputs": [],
      "name": "owner",
      "outputs": [
        {
          "internalType": "address",
          "name": "",
          "type": "address"
        }
      ],
      "stateMutability": "view",
      "type": "function"
    },
    {
      "inputs": [
        {
          "internalType": "address",
          "name": "_manager",
          "type": "address"
        }
      ],
      "name": "setManager",
      "outputs": [],
      "stateMutability": "nonpayable",
      "type": "function"
    },
    {
      "inputs": [],
      "name": "symbol",
      "outputs": [
        {
          "internalType": "string",
          "name": "",
          "type": "string"
        }
      ],
      "stateMutability": "view",
      "type": "function"
    },
    {
      "inputs": [],
      "name": "totalSupply",
      "outputs": [
        {
          "internalType": "uint256",
          "name": "",
          "type": "uint256"
        }
      ],
      "stateMutability": "view",
      "type": "function"
    },
    {
      "inputs": [
        {
          "internalType": "uint256",
          "name": "amount",
          "type": "uint256"
        },
        {
          "internalType": "address",
          "name": "to",
          "type": "address"
        }
      ],
      "name": "transfer",
      "outputs": [],
      "stateMutability": "nonpayable",
      "type": "function"
    },
    {
      "inputs": [
        {
          "internalType": "address",
          "name": "from",
          "type": "address"
        },
        {
          "internalType": "address",
          "name": "to",
          "type": "address"
        },
        {
          "internalType": "uint256",
          "name": "amount",
          "type": "uint256"
        }
      ],
      "name": "transferFrom",
      "outputs": [],
      "stateMutability": "nonpayable",
      "type": "function"
    }
  ],
  "bytecode": "0x608060405234801561001057600080fd5b50604051611c0a380380611c0a83398181016040528101906100329190610451565b3333816000806101000a81548173ffffffffffffffffffffffffffffffffffffffff021916908373ffffffffffffffffffffffffffffffffffffffff16021790555080600160006101000a81548173ffffffffffffffffffffffffffffffffffffffff021916908373ffffffffffffffffffffffffffffffffffffffff1602179055505050336000806101000a81548173ffffffffffffffffffffffffffffffffffffffff021916908373ffffffffffffffffffffffffffffffffffffffff16021790555083600290816101069190610707565b5082600390816101169190610707565b5081600460006101000a81548160ff021916908360ff16021790555061016b600460009054906101000a900460ff1660ff16600a610154919061093b565b8261015f9190610986565b3361017460201b60201c565b50505050610a26565b816005600082825461018691906109c8565b9250508190555081600660008373ffffffffffffffffffffffffffffffffffffffff1673ffffffffffffffffffffffffffffffffffffffff16815260200190815260200160002060008282546101dc91906109c8565b9250508190555060008054906101000a900473ffffffffffffffffffffffffffffffffffffffff1673ffffffffffffffffffffffffffffffffffffffff16600073ffffffffffffffffffffffffffffffffffffffff167fddf252ad1be2c89b69c2b068fc378daa952ba7f163c4a11628f55a4df523b3ef846040516102619190610a0b565b60405180910390a35050565b6000604051905090565b600080fd5b600080fd5b600080fd5b600080fd5b6000601f19601f8301169050919050565b7f4e487b7100000000000000000000000000000000000000000000000000000000600052604160045260246000fd5b6102d48261028b565b810181811067ffffffffffffffff821117156102f3576102f261029c565b5b80604052505050565b600061030661026d565b905061031282826102cb565b919050565b600067ffffffffffffffff8211156103325761033161029c565b5b61033b8261028b565b9050602081019050919050565b60005b8381101561036657808201518184015260208101905061034b565b60008484015250505050565b600061038561038084610317565b6102fc565b9050828152602081018484840111156103a1576103a0610286565b5b6103ac848285610348565b509392505050565b600082601f8301126103c9576103c8610281565b5b81516103d9848260208601610372565b91505092915050565b600060ff82169050919050565b6103f8816103e2565b811461040357600080fd5b50565b600081519050610415816103ef565b92915050565b6000819050919050565b61042e8161041b565b811461043957600080fd5b50565b60008151905061044b81610425565b92915050565b6000806000806080858703121561046b5761046a610277565b5b600085015167ffffffffffffffff8111156104895761048861027c565b5b610495878288016103b4565b945050602085015167ffffffffffffffff8111156104b6576104b561027c565b5b6104c2878288016103b4565b93505060406104d387828801610406565b92505060606104e48782880161043c565b91505092959194509250565b600081519050919050565b7f4e487b7100000000000000000000000000000000000000000000000000000000600052602260045260246000fd5b6000600282049050600182168061054257607f821691505b602082108103610555576105546104fb565b5b50919050565b60008190508160005260206000209050919050565b60006020601f8301049050919050565b600082821b905092915050565b6000600883026105bd7fffffffffffffffffffffffffffffffffffffffffffffffffffffffffffffffff82610580565b6105c78683610580565b95508019841693508086168417925050509392505050565b6000819050919050565b60006106046105ff6105fa8461041b565b6105df565b61041b565b9050919050565b6000819050919050565b61061e836105e9565b61063261062a8261060b565b84845461058d565b825550505050565b600090565b61064761063a565b610652818484610615565b505050565b5b818110156106765761066b60008261063f565b600181019050610658565b5050565b601f8211156106bb5761068c8161055b565b61069584610570565b810160208510156106a4578190505b6106b86106b085610570565b830182610657565b50505b505050565b600082821c905092915050565b60006106de600019846008026106c0565b1980831691505092915050565b60006106f783836106cd565b9150826002028217905092915050565b610710826104f0565b67ffffffffffffffff8111156107295761072861029c565b5b610733825461052a565b61073e82828561067a565b600060209050601f831160018114610771576000841561075f578287015190505b61076985826106eb565b8655506107d1565b601f19841661077f8661055b565b60005b828110156107a757848901518255600182019150602085019450602081019050610782565b868310156107c457848901516107c0601f8916826106cd565b8355505b6001600288020188555050505b505050505050565b7f4e487b7100000000000000000000000000000000000000000000000000000000600052601160045260246000fd5b60008160011c9050919050565b6000808291508390505b600185111561085f5780860481111561083b5761083a6107d9565b5b600185161561084a5780820291505b808102905061085885610808565b945061081f565b94509492505050565b6000826108785760019050610934565b816108865760009050610934565b816001811461089c57600281146108a6576108d5565b6001915050610934565b60ff8411156108b8576108b76107d9565b5b8360020a9150848211156108cf576108ce6107d9565b5b50610934565b5060208310610133831016604e8410600b841016171561090a5782820a905083811115610905576109046107d9565b5b610934565b6109178484846001610815565b9250905081840481111561092e5761092d6107d9565b5b81810290505b9392505050565b60006109468261041b565b91506109518361041b565b925061097e7fffffffffffffffffffffffffffffffffffffffffffffffffffffffffffffffff8484610868565b905092915050565b60006109918261041b565b915061099c8361041b565b92508282026109aa8161041b565b915082820484148315176109c1576109c06107d9565b5b5092915050565b60006109d38261041b565b91506109de8361041b565b92508282019050808211156109f6576109f56107d9565b5b92915050565b610a058161041b565b82525050565b6000602082019050610a2060008301846109fc565b92915050565b6111d580610a356000396000f3fe608060405234801561001057600080fd5b50600436106100ea5760003560e01c806376809ce31161008c57806395d89b411161006657806395d89b4114610225578063b7760c8f14610243578063d0ebdbe71461025f578063dd62ed3e1461027b576100ea565b806376809ce3146101cd5780638da5cb5b146101eb57806394bf804d14610209576100ea565b806323b872dd116100c857806323b872dd14610147578063481c6a7514610163578063579158971461018157806370a082311461019d576100ea565b806306fdde03146100ef578063095ea7b31461010d57806318160ddd14610129575b600080fd5b6100f76102ab565b6040516101049190610c45565b60405180910390f35b61012760048036038101906101229190610d00565b610339565b005b61013161040c565b60405161013e9190610d4f565b60405180910390f35b610161600480360381019061015c9190610d6a565b610412565b005b61016b610680565b6040516101789190610dcc565b60405180910390f35b61019b60048036038101906101969190610de7565b6106a6565b005b6101b760048036038101906101b29190610e14565b6106b3565b6040516101c49190610d4f565b60405180910390f35b6101d56106cb565b6040516101e29190610e5d565b60405180910390f35b6101f36106de565b6040516102009190610dcc565b60405180910390f35b610223600480360381019061021e9190610e78565b610702565b005b61022d6107a0565b60405161023a9190610c45565b60405180910390f35b61025d60048036038101906102589190610e78565b61082e565b005b61027960048036038101906102749190610e14565b6109c5565b005b61029560048036038101906102909190610eb8565b610a97565b6040516102a29190610d4f565b60405180910390f35b600280546102b890610f27565b80601f01602080910402602001604051908101604052809291908181526020018280546102e490610f27565b80156103315780601f1061030657610100808354040283529160200191610331565b820191906000526020600020905b81548152906001019060200180831161031457829003601f168201915b505050505081565b80600760003373ffffffffffffffffffffffffffffffffffffffff1673ffffffffffffffffffffffffffffffffffffffff16815260200190815260200160002060008473ffffffffffffffffffffffffffffffffffffffff1673ffffffffffffffffffffffffffffffffffffffff168152602001908152602001600020819055508173ffffffffffffffffffffffffffffffffffffffff167f1e4109814b4fb1210f81ef6540a9bf7e5834ff79536859d16d6398f0e417c44f826040516104009190610d4f565b60405180910390a25050565b60055481565b600033905081600760008673ffffffffffffffffffffffffffffffffffffffff1673ffffffffffffffffffffffffffffffffffffffff16815260200190815260200160002060008373ffffffffffffffffffffffffffffffffffffffff1673ffffffffffffffffffffffffffffffffffffffff1681526020019081526020016000205410156104d6576040517f08c379a00000000000000000000000000000000000000000000000000000000081526004016104cd90610fa4565b60405180910390fd5b81600760008673ffffffffffffffffffffffffffffffffffffffff1673ffffffffffffffffffffffffffffffffffffffff16815260200190815260200160002060008373ffffffffffffffffffffffffffffffffffffffff1673ffffffffffffffffffffffffffffffffffffffff16815260200190815260200160002060008282546105629190610ff3565b9250508190555081600660008673ffffffffffffffffffffffffffffffffffffffff1673ffffffffffffffffffffffffffffffffffffffff16815260200190815260200160002060008282546105b89190610ff3565b9250508190555081600660008573ffffffffffffffffffffffffffffffffffffffff1673ffffffffffffffffffffffffffffffffffffffff168152602001908152602001600020600082825461060e9190611027565b925050819055508273ffffffffffffffffffffffffffffffffffffffff168473ffffffffffffffffffffffffffffffffffffffff167fddf252ad1be2c89b69c2b068fc378daa952ba7f163c4a11628f55a4df523b3ef846040516106729190610d4f565b60405180910390a350505050565b600160009054906101000a900473ffffffffffffffffffffffffffffffffffffffff1681565b6106b08133610abc565b50565b60066020528060005260406000206000915090505481565b600460009054906101000a900460ff1681565b60008054906101000a900473ffffffffffffffffffffffffffffffffffffffff1681565b600160009054906101000a900473ffffffffffffffffffffffffffffffffffffffff1673ffffffffffffffffffffffffffffffffffffffff163373ffffffffffffffffffffffffffffffffffffffff1614610792576040517f08c379a0000000000000000000000000000000000000000000000000000000008152600401610789906110a7565b60405180910390fd5b61079c8282610abc565b5050565b600380546107ad90610f27565b80601f01602080910402602001604051908101604052809291908181526020018280546107d990610f27565b80156108265780601f106107fb57610100808354040283529160200191610826565b820191906000526020600020905b81548152906001019060200180831161080957829003601f168201915b505050505081565b81600660003373ffffffffffffffffffffffffffffffffffffffff1673ffffffffffffffffffffffffffffffffffffffff1681526020019081526020016000205410156108b0576040517f08c379a00000000000000000000000000000000000000000000000000000000081526004016108a790611113565b60405180910390fd5b81600660003373ffffffffffffffffffffffffffffffffffffffff1673ffffffffffffffffffffffffffffffffffffffff16815260200190815260200160002060008282546108ff9190610ff3565b9250508190555081600660008373ffffffffffffffffffffffffffffffffffffffff1673ffffffffffffffffffffffffffffffffffffffff16815260200190815260200160002060008282546109559190611027565b925050819055508073ffffffffffffffffffffffffffffffffffffffff163373ffffffffffffffffffffffffffffffffffffffff167fddf252ad1be2c89b69c2b068fc378daa952ba7f163c4a11628f55a4df523b3ef846040516109b99190610d4f565b60405180910390a35050565b60008054906101000a900473ffffffffffffffffffffffffffffffffffffffff1673ffffffffffffffffffffffffffffffffffffffff163373ffffffffffffffffffffffffffffffffffffffff1614610a53576040517f08c379a0000000000000000000000000000000000000000000000000000000008152600401610a4a9061117f565b60405180910390fd5b80600160006101000a81548173ffffffffffffffffffffffffffffffffffffffff021916908373ffffffffffffffffffffffffffffffffffffffff16021790555050565b6007602052816000526040600020602052806000526040600020600091509150505481565b8160056000828254610ace9190611027565b9250508190555081600660008373ffffffffffffffffffffffffffffffffffffffff1673ffffffffffffffffffffffffffffffffffffffff1681526020019081526020016000206000828254610b249190611027565b9250508190555060008054906101000a900473ffffffffffffffffffffffffffffffffffffffff1673ffffffffffffffffffffffffffffffffffffffff16600073ffffffffffffffffffffffffffffffffffffffff167fddf252ad1be2c89b69c2b068fc378daa952ba7f163c4a11628f55a4df523b3ef84604051610ba99190610d4f565b60405180910390a35050565b600081519050919050565b600082825260208201905092915050565b60005b83811015610bef578082015181840152602081019050610bd4565b60008484015250505050565b6000601f19601f8301169050919050565b6000610c1782610bb5565b610c218185610bc0565b9350610c31818560208601610bd1565b610c3a81610bfb565b840191505092915050565b60006020820190508181036000830152610c5f8184610c0c565b905092915050565b600080fd5b600073ffffffffffffffffffffffffffffffffffffffff82169050919050565b6000610c9782610c6c565b9050919050565b610ca781610c8c565b8114610cb257600080fd5b50565b600081359050610cc481610c9e565b92915050565b6000819050919050565b610cdd81610cca565b8114610ce857600080fd5b50565b600081359050610cfa81610cd4565b92915050565b60008060408385031215610d1757610d16610c67565b5b6000610d2585828601610cb5565b9250506020610d3685828601610ceb565b9150509250929050565b610d4981610cca565b82525050565b6000602082019050610d646000830184610d40565b92915050565b600080600060608486031215610d8357610d82610c67565b5b6000610d9186828701610cb5565b9350506020610da286828701610cb5565b9250506040610db386828701610ceb565b9150509250925092565b610dc681610c8c565b82525050565b6000602082019050610de16000830184610dbd565b92915050565b600060208284031215610dfd57610dfc610c67565b5b6000610e0b84828501610ceb565b91505092915050565b600060208284031215610e2a57610e29610c67565b5b6000610e3884828501610cb5565b91505092915050565b600060ff82169050919050565b610e5781610e41565b82525050565b6000602082019050610e726000830184610e4e565b92915050565b60008060408385031215610e8f57610e8e610c67565b5b6000610e9d85828601610ceb565b9250506020610eae85828601610cb5565b9150509250929050565b60008060408385031215610ecf57610ece610c67565b5b6000610edd85828601610cb5565b9250506020610eee85828601610cb5565b9150509250929050565b7f4e487b7100000000000000000000000000000000000000000000000000000000600052602260045260246000fd5b60006002820490506001821680610f3f57607f821691505b602082108103610f5257610f51610ef8565b5b50919050565b7f696e73756666696369656e7420616c6c6f77616e636500000000000000000000600082015250565b6000610f8e601683610bc0565b9150610f9982610f58565b602082019050919050565b60006020820190508181036000830152610fbd81610f81565b9050919050565b7f4e487b7100000000000000000000000000000000000000000000000000000000600052601160045260246000fd5b6000610ffe82610cca565b915061100983610cca565b925082820390508181111561102157611020610fc4565b5b92915050565b600061103282610cca565b915061103d83610cca565b925082820190508082111561105557611054610fc4565b5b92915050565b7f596f7520617265206e6f74206d616e6167657200000000000000000000000000600082015250565b6000611091601383610bc0565b915061109c8261105b565b602082019050919050565b600060208201905081810360008301526110c081611084565b9050919050565b7f696e73756666696369656e742062616c616e6365000000000000000000000000600082015250565b60006110fd601483610bc0565b9150611108826110c7565b602082019050919050565b6000602082019050818103600083015261112c816110f0565b9050919050565b7f596f7520617265206e6f74206f776e6572000000000000000000000000000000600082015250565b6000611169601183610bc0565b915061117482611133565b602082019050919050565b600060208201905081810360008301526111988161115c565b905091905056fea2646970667358221220746db38f827d2d0deaae4a7404406332d5f13cc29f137761715f99b009bd316764736f6c634300081c0033",
  "linkReferences": {},
  "deployedLinkReferences": {}
}